:100000000C9434000C9446000C9446000C9446006A
:100010000C9446000C9446000C9446000C94460048
:100020000C9446000C9446000C9446000C9470000E
:100030000C9446000C9446000C9446000C94460028
:100040000C9446000C9446000C9446000C94460018
:100050000C9446000C9446000C9446000C94460008
:100060000C9446000C94460011241FBECFEFD8E03C
:10007000DEBFCDBF21E0A0E0B1E001C01D92A13004
:10008000B207E1F70E94B5010C9408020C9400003D
:100090008095853558F4482F440F480F982F990FB5
:1000A000990F891B60E081500C9431018A3A60F409
:1000B0008555982F990F990F482F491B4150682F4C
:1000C000660F680F80E0F0CF8A5A982F990F990F2A
:1000D000682F691B6150982F990F40E0890FE4CF7A
:1000E0001F920F920FB60F9211242F933F934F93AD
:1000F0005F936F937F938F939F93AF93BF93EF9390
:10010000FF938091000191E0980F909300010E946D
:100110004800FF91EF91BF91AF919F918F917F9197
:100120006F915F914F913F912F910F900FBE0F9064
:100130001F9018951092C50088E08093C40088E94C
:100140008093C10086E08093C200789408959091D6
:10015000C00095FFFCCF8093C6000895CF93DF9336
:10016000EC018991811103C0DF91CF9108950E9424
:10017000A700F7CF30E020E0281739070CF00895EA
:10018000EFE9FFE03197F1F700C000002F5F3F4F2C
:10019000F3CF84B1876184B908958AB188668AB93A
:1001A000089595B121E030E001C0220F8A95EAF769
:1001B000922B95B9089595B121E030E001C0220F4E
:1001C0008A95EAF72095292325B9089595B121E06C
:1001D00030E001C0220F8A95EAF7922795B9089579
:1001E0009BB121E030E001C0220F8A95EAF7922B03
:1001F0009BB908959BB121E030E001C0220F8A95A0
:10020000EAF7209529232BB908959BB121E030E02E
:1002100001C0220F8A95EAF792279BB908958BB106
:1002200087798BB90895CF93C82F0E940F018BB1A6
:100230008C2B8BB9CF9108950E94CD0084B5806A34
:1002400084BD84B5836084BD92E095BDE0EBF0E0B1
:100250008081806280838081836080839093B100FD
:10026000089567BD88BD4093B400089585B1876146
:1002700085B92FEF89E698E1215080409040E1F761
:1002800000C0000085B1887E85B90895EF92FF9285
:100290000F931F93CF93DF9305E010E0C4EFD1E0FD
:1002A0008DEFE82EFF24FA9480E00E94D100CE0169
:1002B0000E94BA0080E00E94DB0081E00E94D10031
:1002C000CE010E94BA0081E00E94DB0082E00E9421
:1002D000D100CE010E94BA0082E00E94DB0084E0DF
:1002E0000E94D100CE010E94BA0084E00E94DB008F
:1002F000CB30D10534F0CE01B7010E94BE01C60F4C
:10030000D71F0150110981F6DF91CF911F910F91F5
:10031000FF90EF900895E1E8F0E09081986090837D
:1003200020E0382F330F330F50E040E060E074E2FC
:1003300084EF90E00E94D20121503109309389006E
:1003400020938800EFE6F0E08081826080837894DB
:100350000895E1E8F0E08081856080830895E1E818
:10036000F0E080818A7F808308950E941C0182E3EF
:1003700090E00E948B010E94A901FFCF97FB072EFE
:1003800016F4009407D077FD09D00E94F40107FC11
:1003900005D03EF4909581959F4F08957095619595
:1003A0007F4F0895A1E21A2EAA1BBB1BFD010DC0B1
:1003B000AA1FBB1FEE1FFF1FA217B307E407F50715
:1003C00020F0A21BB30BE40BF50B661F771F881FF1
:1003D000991F1A9469F760957095809590959B0187
:1003E000AC01BD01CF010895AA1BBB1B51E107C0A1
:1003F000AA1FBB1FA617B70710F0A61BB70B881FB5
:10040000991F5A95A9F780959095BC01CD01089543
:04041000F894FFCF8E
:00000001FF
