:100000000C9434000C943E000C943E000C943E0082
:100010000C943E000C943E000C943E000C943E0068
:100020000C943E000C943E000C943E000C943E0058
:100030000C943E000C943E000C943E000C943E0048
:100040000C943E000C943E000C943E000C943E0038
:100050000C943E000C943E000C943E000C943E0028
:100060000C943E000C943E0011241FBECFEFD8E04C
:10007000DEBFCDBF0E94C7000C94FD000C940000B1
:100080001092C50088E08093C40088E98093C10085
:1000900086E08093C200789408959091C00095FF07
:1000A000FCCF8093C6000895CF93DF93EC01899134
:1000B000882319F00E944D00FACFDF91CF91089567
:1000C00084B1876184B98AB188668AB9089595B187
:1000D00098130AC025B181E090E001C0880F6A95AD
:1000E000EAF7822B85B908959BB1891309C02BB11A
:1000F00081E090E001C0880F6A95EAF7822B8BB906
:10010000089595B198130BC025B181E090E001C02E
:10011000880F6A95EAF78095822385B908959BB187
:1001200089130AC02BB181E090E001C0880F6A9565
:10013000EAF7809582238BB9089595B198130AC088
:1001400025B181E090E001C0880F6A95EAF7822727
:1001500085B908959BB1891309C02BB181E090E066
:1001600001C0880F6A95EAF782278BB9089585B197
:10017000876185B92FEF89E698E121508040904052
:10018000E1F700C0000085B1887E85B908950E941E
:1001900060008BB165E00E9467002FEF89E698E16F
:1001A000215080409040E1F700C000008BB165E035
:1001B0000E9481008BB166E00E9467002FEF89E604
:1001C00098E1215080409040E1F700C000008BB1E1
:1001D00066E00E9481008BB163E00E9467002FEF10
:1001E00089E698E1215080409040E1F700C000008E
:0E01F0008BB163E00E948100CCCFF894FFCF6A
:00000001FF
