:100000000C9434000C9446000C9446000C9446006A
:100010000C9446000C9446000C9446000C94460048
:100020000C9446000C9446000C9446000C94460038
:100030000C9446000C9446000C9446000C94460028
:100040000C9446000C9446000C945E000C94460000
:100050000C9446000C9446000C9446000C94460008
:100060000C9446000C94460011241FBECFEFD8E03C
:10007000DEBFCDBF21E0A0E0B1E001C01D92A13004
:10008000B207E1F70E949F000C94A2000C940000BC
:100090001092C50088E08093C40088E98093C10075
:1000A00086E08093C200789408958091C00085FF17
:1000B000FCCF809100018093C60008951F920F929B
:1000C0000FB60F9211242F933F934F935F936F932B
:1000D0007F938F939F93AF93BF93EF93FF93809101
:1000E000C6008093000180910001813644F0809128
:1000F00000018B3724F48091000180520BC0809165
:10010000000181344CF0809100018B352CF48091FA
:100110000001805E809300010E945500FF91EF91E5
:10012000BF91AF919F918F917F916F915F914F910F
:100130003F912F910F900FBE0F901F9018950E9426
:080140004800FFCFF894FFCF47
:00000001FF
