:100000000C9434000C9482000C94B1000C945100B8
:100010000C9451000C9451000C9451000C9451001C
:100020000C9451000C9451000C9451000C9451000C
:100030000C9451000C9451000C9451000C945100FC
:100040000C9451000C9451000C9400010C9451003C
:100050000C9451000C9451000C9451000C945100DC
:100060000C9451000C94510011241FBECFEFD8E026
:10007000DEBFCDBF11E0A0E0B1E0E8EFF4E002C0E8
:1000800005900D92AE30B107D9F721E0AEE0B1E0B6
:1000900001C01D92AC31B207E1F70E9441020C94FD
:1000A0007A020C940000482F29B130E002C0359547
:1000B00027958A95E2F720FD16C02FEF80E792E0A2
:1000C000215080409040E1F700C0000099B1892F95
:1000D00090E002C0959587954A95E2F7817099273F
:1000E00021E08227089580E090E0089595B1987FFF
:1000F00095B92C9895B1282F2770922B95B983FD2F
:100100002C9A08951F920F920FB60F9211242F93DD
:100110003F934F935F936F937F938F939F93AF938F
:10012000BF93EF93FF9380910E018F302CF4809159
:100130000E018F5F80930E0180910E010E94760068
:10014000FF91EF91BF91AF919F918F917F916F91AF
:100150005F914F913F912F910F900FBE0F901F9085
:1001600018951F920F920FB60F9211242F933F9361
:100170004F935F936F937F938F939F93AF93BF93AF
:10018000EF93FF9380910E0118162CF480910E01CD
:10019000815080930E0180910E010E947600FF91A4
:1001A000EF91BF91AF919F918F917F916F915F91EF
:1001B0004F913F912F910F900FBE0F901F90189568
:1001C0001092C50088E08093C40088E98093C10044
:1001D00086E08093C200789408959091C00095FFC6
:1001E000FCCF8093C6000895CF93DF93EC018991F3
:1001F000882319F00E94ED00FACFDF91CF91089586
:100200001F920F920FB60F9211242F933F934F938B
:100210005F936F937F938F939F93AF93BF93EF936E
:10022000FF938091C6008D3071F4E0911001F0E0F1
:10023000EF5EFE4F108281E080930F01109210015B
:1002400080E091E013C08F37A1F4809110018823E2
:1002500009F180911001815080931001E09110010B
:10026000F0E0EF5EFE4F108286E091E00E94F40025
:1002700011C0909110019A3068F4E0911001F0E003
:10028000EF5EFE4F8083909110019F5F909310016D
:100290000E94ED00FF91EF91BF91AF919F918F91DF
:1002A0007F916F915F914F913F912F910F900FBE72
:1002B0000F901F90189580910F018823E1F3109201
:1002C0000F0181E191E0089520E030E0281739071F
:1002D0004CF4EFE9FFE03197F1F700C000002F5F29
:1002E0003F4FF4CF089584B1876184B908958AB1EE
:1002F00088668AB9089595B121E030E001C0220FE7
:100300008A95EAF7292B25B9089595B121E030E0C7
:1003100001C0220F8A95EAF72095292325B908956F
:1003200095B121E030E001C0220F8A95EAF7292734
:1003300025B908959BB121E030E001C0220F8A95D4
:10034000EAF7292B2BB908959BB121E030E001C0D9
:10035000220F8A95EAF7209529232BB908959BB19E
:1003600021E030E001C0220F8A95EAF729272BB956
:1003700008958BB187798BB90895CF93C82F0E94C8
:10038000B9018BB1C82BCBB9CF9108950E947701E9
:1003900084B5806A84BD84B5836084BD92E095BDD8
:1003A000E0EBF0E0808180628083808183608083E5
:1003B0009093B100089567BD88BD4093B40008953F
:1003C00085B1876185B92FEF89E698E1215080409A
:1003D0009040E1F700C0000085B1887E85B908959E
:1003E000EF92FF920F931F93CF93DF9305E010E0FE
:1003F000C4EFD1E08DEFE82EFF24FA9480E00E9454
:100400007B01CE010E94640180E00E94850181E0B1
:100410000E947B01CE010E94640181E00E9485015F
:1004200082E00E947B01CE010E94640182E00E9472
:10043000850184E00E947B01CE010E94640184E07A
:100440000E948501CB30D10534F0CE01B7010E9466
:100450005202C60FD71F0150110981F6DF91CF91CB
:100460001F910F91FF90EF900895E1E8F0E08081F7
:10047000856080830895E1E8F0E080818A7F808351
:1004800008950E947301809169008F6080936900D4
:100490008DB383608DBB8BB184618BB952985498B6
:1004A0007894FFCF97FB072E16F4009407D077FDC2
:1004B00009D00E94660207FC05D03EF49095819514
:1004C0009F4F0895709561957F4F0895AA1BBB1BA0
:1004D00051E107C0AA1FBB1FA617B70710F0A61B44
:1004E000B70B881F991F5A95A9F780959095BC0165
:0804F000CD010895F894FFCF3F
:0E04F8000D1B5B3142001B5B31441B5B4B0054
:00000001FF
